:020000040000FA
:100000000C94A3000C94CB000C94CB000C94CB006C
:100010000C94CB000C94CB000C94CB000C94CB0034
:100020000C94CB000C9457080C94CB000C94CB0090
:100030000C94CB000C9430080C94CB000C94CB00A7
:100040000C948E070C94CB000C94FE070C94D807EC
:100050000C94CB000C94CB000C94CB000C94CB00F4
:100060000C94CB000C94CB0008000000BE922449F5
:10007000123EABAAAA2ABECDCCCC4C3E00000080DA
:10008000BEABAAAAAA3E00000000BF000000803F4D
:100090000000000000084178D3BB4387D1133D190D
:1000A0000E3CC3BD4282AD2B3E68EC8276BED98F3A
:1000B000E1A93E4C80EFFFBE01C4FF7F3F0000007E
:1000C000000007634236B79BD8A71A39685618AEA6
:1000D000BAAB558C1D3CB7CC5763BD6DEDFD753E7D
:1000E000F6177231BF000000803F000000002300BF
:1000F0002600290000000000240027002A0000003C
:100100000000250028002B00040404040404040457
:1001100002020202020203030303030301020408B2
:100120001020408001020408102001020408102061
:1001300000000008000201000003040700000000A6
:1001400000000000450911241FBECFEFD8E0DEBF3C
:10015000CDBF11E0A0E0B1E0EEE3F1E202C0059016
:100160000D92A438B107D9F722E0A4E8B1E001C0AC
:100170001D92AC36B207E1F710E0C3EAD0E004C04C
:100180002197FE010E94720FC23AD107C9F70E945F
:100190007C090C949D100C940000833081F028F4AD
:1001A000813099F08230A9F008958730A9F0883025
:1001B000C9F08430B1F4809180008F7D03C08091BC
:1001C00080008F7780938000089584B58F7784BDF9
:1001D000089584B58F7DFBCF8091B0008F77809399
:1001E000B00008958091B0008F7DF9CF1F93CF9319
:1001F000DF93282F30E0F901E05DFE4F8491F90193
:10020000E45EFE4FD491F901E85FFE4FC491CC2328
:10021000A9F0162F81110E94CD00EC2FF0E0EE0F17
:10022000FF1FE250FF4FA591B4918FB7F894EC9166
:10023000111108C0D095DE23DC938FBFDF91CF91E1
:100240001F910895DE2BF8CFCF93DF9390E0FC0150
:10025000E45EFE4F2491885F9E4FFC0184918823C9
:10026000D1F090E0880F991FFC01EC50FF4FA59151
:10027000B491FC01E250FF4FC591D49161110EC0C1
:100280009FB7F8948C91E22FE0958E238C93288170
:10029000E223E8839FBFDF91CF9108958FB7F89451
:1002A000EC91E22BEC938FBFF6CF8E3008F08E509E
:1002B0008770806480937C0080917A008064809352
:1002C0007A0080917A0086FDFCCF80917800909131
:1002D0007900089581E080934C020895FC017383B6
:1002E00062831582148281E090E095878487178667
:1002F0001686118A108A0895FC0173836283158221
:10030000148282E090E09587848708956B3C98E0A2
:10031000790714F06AEC78E06E3E92E0790714F405
:100320006EEE72E0685071099B01220F232F221F8D
:10033000330B90E0FC01EE0FFF1FE80FF91FEA57A7
:10034000FE4F2183660F609562830895AF92BF923E
:10035000CF92DF92EF92FF920F931F93CF93DF9391
:100360006C017B018B01040F151FEB015E01AE18C0
:10037000BF08C017D10759F06991D601ED91FC91E2
:100380000190F081E02DC6010995892B79F7C5010F
:10039000DF91CF911F910F91FF90EF90DF90CF9061
:1003A000BF90AF900895FC01538D448D252F30E010
:1003B000842F90E0821B930B541710F0CF96089572
:1003C00001970895FC01918D828D981761F0A28D9F
:1003D000AE0FBF2FB11D5D968C91928D9F5F9F7365
:1003E000928F90E008958FEF9FEF0895FC01918D1B
:1003F000828D981731F0828DE80FF11D858D90E088
:1004000008958FEF9FEF0895FC01918D228D892F24
:1004100090E0805C9F4F821B91098F73992708950C
:100420008FEA91E00E94040221E0892B09F420E088
:10043000822F089580E090E0892B29F00E9410021D
:1004400081110C9400000895FC01A48DA80FB92F10
:10045000B11DA35ABF4F2C91848D90E001968F73EC
:100460009927848FA689B7892C93A089B1898C910B
:10047000837080648C93938D848D981306C002885A
:10048000F389E02D80818F7D80830895EF92FF9224
:100490000F931F93CF93DF93EC0181E0888F9B8DA7
:1004A0008C8D98131AC0E889F989808185FF15C061
:1004B0009FB7F894EE89FF896083E889F989808184
:1004C0008370806480839FBF81E090E0DF91CF9153
:1004D0001F910F91FF90EF900895F62E0B8D10E075
:1004E0000F5F1F4F0F731127E02E8C8D8E110CC0E4
:1004F0000FB607FCFACFE889F989808185FFF5CF2F
:10050000CE010E942402F1CFEB8DEC0FFD2FF11DE7
:10051000E35AFF4FF0829FB7F8940B8FEA89FB896B
:1005200080818062CFCFCF93DF93EC01888D8823C9
:10053000B9F0AA89BB89E889F9898C9185FD03C046
:10054000808186FD0DC00FB607FCF7CF8C9185FF2B
:10055000F2CF808185FFEDCFCE010E942402E9CF4A
:10056000DF91CF9108950895EF92FF920F931F931B
:10057000CF93DF938C0180914C028823E1F310929A
:100580004C02780186E0E80EF11CD0E0C0E0F801F2
:1005900084819581C817D90734F5F701A191B191EC
:1005A0007F01F8018281938114962D913C911597DA
:1005B000820F931F15969C938E93149712962D91EC
:1005C0003C9113978217930764F015961C921E9224
:1005D0001497ED91FC9111970280F381E02DCD01EC
:1005E00009952196D4CFDF91CF911F910F91FF9064
:1005F000EF900895FC0124813581293031057CF488
:10060000F9013396EE0FFF1FE80FF91F7183608326
:100610002F5F3F4FFC013583248381E0089580E004
:100620000895FC01848195810895CF93FC01A481F4
:10063000B5811A161B060CF41197B583A483C681E5
:100640008FEF8C0F8830A0F42CED35E00E946B0FFB
:1006500024EB30E040E050E00E94580BCA01B901A1
:1006600062517D4F8F4F9F4F8C2FCF910C948601FD
:10067000CF910895CF93FC01A481B581A43BB1052E
:100680000CF41196B583A483C6818FEF8C0F88304C
:10069000A0F42CED35E00E946B0F24EB30E040E03D
:1006A00050E00E94580BCA01B90162517D4F8F4F33
:1006B0009F4F8C2FCF910C948601CF910895CF93AB
:1006C000FC0175836483C6818FEF8C0F8830A8F49A
:1006D0002CED35E0DB010E946B0F24EB30E040E0B5
:1006E00050E00E94580BCA01B90162517D4F8F4FF3
:1006F0009F4F8C2FCF910C948601CF91089560E08D
:10070000FC0182810C94F60061E0FC0182810C9472
:10071000F600CF93DF93EC018A859B8581309105AC
:1007200051F108F461C082309105E9F1039709F0B5
:1007300058C08E819F81DC01ED91FC910190F08188
:10074000E02D099520E030E048E452E40E94150CC9
:1007500087FF47C088859985DC01ED91FC91068073
:10076000F781E02D09958A359105DCF581E090E06F
:100770009B878A8736C088859985DC01ED91FC913D
:100780000280F381E02D099588859985DC01ED9142
:10079000FC910680F781E02D09958A3591050CF1D1
:1007A00082E090E0E5CF8E819F81DC01ED91FC91AC
:1007B0000190F081E02D09952C853D852F5F3F4FFD
:1007C0003D872C872C33310564F020E030E048E48D
:1007D00052E40E94740D181624F41D861C861B8694
:1007E0001A86DF91CF91089588859985DC01ED9176
:1007F000FC910680F781E02D0995181619064CF436
:1008000088859985DC01ED91FC910480F581E02DCE
:10081000099588859985DC01ED91FC910680F78129
:10082000E02D0995892BE9F688859985DC01ED9104
:10083000FC910190F081E02D70E060E0099583E08B
:1008400090E096CFFC0173836283158214828085C9
:100850009185DC01ED91FC910190F081E02D70E03B
:1008600060E00994CF93DF93FC0122813381332729
:10087000F901E05DFE4F8491F901E45EFE4FD491F1
:10088000F901E85FFE4FC491CC2379F081110E94F9
:10089000CD00EC2FF0E0EE0FFF1FE651FF4FA591CA
:1008A000B491EC91ED2381E009F480E08170DF9157
:1008B000CF91089542E050E068E671E08FEA91E060
:1008C0000C94A601CF93DF93682F8FEA91E00E94EA
:1008D0004602EC010E945A048C0F9D1FDF91CF91BC
:1008E0000895EF92FF920F931F93CF93DF93EC0144
:1008F0008C859D858130910509F43FC070F0823070
:10090000910509F46BC0039709F4A0C0DF91CF9162
:100910001F910F91FF90EF9008958FEA91E00E9450
:100920000402892B39F08FEA91E00E94E201E82E5F
:100930000E9462042DE4E21204C082E090E09D87F0
:100940008C878E819F81DC01ED91FC910190F0817B
:10095000E02D0995853F9140CCF288859985DC0191
:10096000ED91FC910280F381E02D09951F861E8692
:1009700081E090E09D878C87C9CF8FEA91E00E944B
:100980000402892B39F08FEA91E00E94E201F82EEF
:100990000E946204BDE4FB1204C083E090E09D87E6
:1009A0008C878E819F81DC01ED91FC910190F0811B
:1009B000E02D0995843691050CF0A8CF888599859E
:1009C000DC01ED91FC910190F081E02D099581E031
:1009D00090E09F878E871D861C8698CF8FEA91E0D6
:1009E0000E940402892B39F08FEA91E00E94E20113
:1009F000082F0E946204013421F481E090E09D8779
:100A00008C878A859B85DC01ED91FC910190F081BA
:100A1000E02D0995882309F479CF88859985DC0133
:100A2000ED91FC910280F381E02D09951F861E86D1
:100A3000888999890196853091051CF4998B888B5A
:100A400065CF198A188A83E090E094CF8FEA91E00D
:100A50000E940402892B39F08FEA91E00E94E201A2
:100A6000182F0E946204113421F481E090E09D87E8
:100A70008C878A859B85DC01ED91FC910190F0814A
:100A8000E02D0995882309F441CF88859985DC01FB
:100A9000ED91FC910190F081E02D099581E090E0CD
:100AA0009F878E878889998901968530910534F2D0
:100AB000198A188A82E090E05DCFCF92DF92EF92A0
:100AC000FF92CF93DF93EC018C859D858230910559
:100AD00009F483C060F4009711F1019709F43EC056
:100AE000DF91CF91FF90EF90DF90CF90089583300A
:100AF000910509F4A9C0049799F78E819F81DC01C3
:100B0000ED91FC910190F081E02D099520E030E01D
:100B100048EE51E40E94150C87FFE2CF89C08E8118
:100B20009F81DC01ED91FC910190F081E02D099510
:100B300020E030E040E951E40E94740D181684F67C
:100B400088859985DC01ED91FC910480F581E02D8B
:100B5000099581E090E09D878C87C2CF48E150E005
:100B60006BE671E08FEA91E00E94A6010E945A04B0
:100B70008E819F81DC01ED91FC910190F081E02D4F
:100B800009956B017C0120E030E040E751E40E94D0
:100B9000150C87FF0BC088859985DC01ED91FC91D0
:100BA0000190F081E02D09951D861C8620E030E043
:100BB00040EA51E4C701B6010E94740D18160CF00A
:100BC0008FCF88859985DC01ED91FC910280F381BE
:100BD000E02D099582E090E0BECF8E819F81DC01FF
:100BE000ED91FC910190F081E02D09956B017C0164
:100BF00020E030E040EA51E40E94150C87FF0DC070
:100C000088859985DC01ED91FC910480F581E02DCA
:100C1000099581E090E09D878C8720E030E040EDF1
:100C200051E4C701B6010E94740D18160CF058CF9C
:100C30008A859B85DC01ED91FC910480F581E02D96
:100C4000099583E090E087CF8E819F81DC01ED9153
:100C5000FC910190F081E02D09956B017C0120E071
:100C600030E040E052E40E94740D18166CF48A855E
:100C70009B85DC01ED91FC910190F081E02D0995BF
:100C800084E090E09D878C8720E030E040ED51E4E7
:100C9000C701B6010E94150C87FF22CF8A859B856C
:100CA00092CFFC0182810E945501BC01990F880BF3
:100CB000990B0E94C40C9B01AC0160E070EC8FE7C3
:100CC00094E40E941A0C20E030E040E85FE30E94C8
:100CD000A80B9B01AC0160E070E080E89FE30E94FC
:100CE0001A0C0E94810D20E030EE46E755E40E9488
:100CF0001A0C2FE03FEC4BE55BE30E94A90B9B0134
:100D0000AC0160E070E080E89FE30E941A0C23E3EE
:100D100033E948E853E40E94A80B08958F929F920C
:100D2000AF92BF92CF92DF92EF92FF92FC0182814D
:100D30000E945501BC01990F880B990B0E94C40CAD
:100D400020E030E040E85AE30E94C90D20E030E0A6
:100D500040EA50E40E94C90D6B017C0120E030E0C4
:100D60004AEF54E40E94C90D4B015C0120E030E0E1
:100D700040EA50E4C701B6010E941A0C9B01AC0185
:100D800060E070E080E89FE30E94A80B9B01AC014B
:100D9000C501B4010E941A0C9B01AC0167E678EB17
:100DA00084E798E40E941A0C2EE63BED46EB5FE3E5
:100DB0000E94360E0E948C0CCB01FF90EF90DF90CA
:100DC000CF90BF90AF909F908F900895CF93DF9377
:100DD000FC01C281D38161E08C2F0E942401FE01BD
:100DE000FF27E05DFE4FE491E33059F150F4E1302C
:100DF000D1F0E23001F160E08C2FDF91CF910C94C3
:100E0000F600E73051F1E83089F1E430A1F7809144
:100E1000800080628093800080E590E090938B005A
:100E200080938A0005C084B5806884BD80E587BD55
:100E3000DF91CF91089584B5806284BD80E588BD3F
:100E4000F7CF8091800080688093800080E590E0FB
:100E50009093890080938800EBCF8091B0008068E8
:100E60008093B00080E58093B300E2CF8091B00022
:100E700080628093B00080E58093B400D9CF0F9357
:100E80001F93CF93DF93EC0160E08A810E94F6000C
:100E900083E090E00197F1F761E08A810E94F6001B
:100EA00083E290E00197F1F760E08A810E94F6000A
:100EB0008C819D819927FC01E45EFE4F6491FC01C9
:100EC000E85FFE4FE491F0E0EE0FFF1FE651FF4FA9
:100ED0008591949100E412E42FE030E0462F0E94C7
:100EE0000009611571058105910529F06F5F7F4F3C
:100EF0008F4F9F4F9F700E94C40C26E933E44BE054
:100F00005DE30E94C90D20E030E040E05FE30E9415
:100F1000C90DDF91CF911F910F9108951F920F92EC
:100F20000FB60F9211242F933F938F939F93AF93FC
:100F3000BF938091AB019091AC01A091AD01B091B4
:100F4000AE013091AA0123E0230F2D3758F5019609
:100F5000A11DB11D2093AA018093AB019093AC0118
:100F6000A093AD01B093AE018091A6019091A7012D
:100F7000A091A801B091A9010196A11DB11D809376
:100F8000A6019093A701A093A801B093A901BF91D6
:100F9000AF919F918F913F912F910F900FBE0F9026
:100FA0001F90189526E8230F0296A11DB11DD2CFE0
:100FB0001F920F920FB60F9211242F933F934F93CE
:100FC0005F936F937F938F939F93AF93BF93EF93B1
:100FD000FF938FEA91E00E942402FF91EF91BF916D
:100FE000AF919F918F917F916F915F914F913F91C1
:100FF0002F910F900FBE0F901F9018951F920F9278
:101000000FB60F9211242F938F939F93EF93FF931B
:10101000E091BF01F091C0018081E091C501F091A4
:10102000C60182FD1BC090818091C8018F5F8F73C4
:101030002091C901821741F0E091C801F0E0E1552B
:10104000FE4F958F8093C801FF91EF919F918F91F3
:101050002F910F900FBE0F901F9018958081F4CFA5
:101060001F920F920FB60F9211242F933F934F931D
:101070005F936F937F938F939F93AF93BF93EF9300
:10108000FF93E0910001F09101010995FF91EF912B
:10109000BF91AF919F918F917F916F915F914F9190
:1010A0003F912F910F900FBE0F901F9018951F9298
:1010B0000F920FB60F9211242F933F934F935F938C
:1010C0006F937F938F939F93AF93BF93EF93FF9310
:1010D000809184018F5F80938401E091850120914C
:1010E00084018E2F90E0FC01EE0FFF1FE80FF91F27
:1010F000EA57FE4F8181E091850182131DC08E2F3A
:1011000090E0FC01EE0FFF1FE80FF91FEA57FE4FBA
:1011100082818093B200FF91EF91BF91AF919F9137
:101120008F917F916F915F914F913F912F910F9090
:101130000FBE0F901F901895209184018E2F90E084
:10114000FC01EE0FFF1FE80FF91FEA57FE4F8181E8
:10115000821708F7E09185018E2F90E0FC01EE0FD9
:10116000FF1FE80FF91FEA57FE4F808185FF10C06F
:10117000E09185018E2F90E0FC01EE0FFF1FE80F3C
:10118000F91FEA57FE4F808160E08F710E94F600E0
:10119000809185018F5F8093850110928401109268
:1011A000B20080918501882319F1809185018930F1
:1011B000F8F4E09185018E2F90E0FC01EE0FFF1F07
:1011C000E80FF91FEA57FE4F808185FFA4CFE09119
:1011D00085018E2F90E0FC01EE0FFF1FE80FF91F35
:1011E000EA57FE4F808161E08F710E94F60093CF35
:1011F00080918501893008F48ECF109285018BCFC4
:10120000CF92DF92EF92FF920F931F93E82FF92F67
:1012100005C0015011092109310961F1908196231E
:101220009417B9F305C0015011092109310911F1D1
:10123000908196239413F7CFC12CD12CE12CF12C63
:101240000AC08FEFC81AD80AE80AF80A0C151D055B
:101250002E053F0579F080818623841791F36C2D4C
:101260007D2D8E2D9F2D1F910F91FF90EF90DF9080
:10127000CF90089560E070E080E090E01F910F91C2
:10128000FF90EF90DF90CF900895EFEAF1E01382A6
:10129000128288EE93E0A0E0B0E084839583A68379
:1012A000B78382E591E09183808385EC90E0958718
:1012B000848784EC90E09787868780EC90E0918B20
:1012C000808B81EC90E0938B828B82EC90E0958B0D
:1012D000848B86EC90E0978B868B118E128E138E0A
:1012E000148E84E691E090934E0280934D0210920A
:1012F0004C0210926F000895789484B5826084BD8A
:1013000084B5816084BD85B5826085BD85B5816009
:1013100085BD80916E00816080936E001092810087
:101320008091810082608093810080918100816042
:101330008093810080918000816080938000809103
:10134000B10084608093B1008091B000816080938F
:10135000B00080917A00846080937A0080917A0056
:10136000826080937A0080917A00816080937A0015
:1013700080917A00806880937A001092C100E09199
:10138000BF01F091C00182E08083E091BB01F09148
:10139000BC011082E091BD01F091BE018FEC808311
:1013A0001092C701E091C301F091C40186E08083EF
:1013B000E091C101F091C201808180618083E09160
:1013C000C101F091C201808188608083E091C101F8
:1013D000F091C201808180688083E091C101F09129
:1013E000C20180818F7D808386E090E00E94780F2B
:1013F0008C018CE091E0F8019183808383E090E0A0
:101400009383828382E090E09583848361E083E02C
:101410000E94240160E082E00E94240187E090E0C5
:101420000E94780FEC0182E191E09983888380919A
:10143000A201883008F03AC18F5F8093A2018E83A9
:1014400086E090E09B838A831D821C828091A101AB
:10145000811121C0E6E8F1E09BE087E59483858374
:10146000339621E0EE39F207C9F78EE380938701C6
:101470001092850110928401109270001092B000B9
:1014800082E08093B1001092B20081E087BB80932C
:1014900070008093A1018E81882399F061E086E03D
:1014A0000E942401EE818E2F90E0FC01EE0FFF1FC1
:1014B000E80FF91FEA57FE4F8081807E86608062C8
:1014C00080838EE090E00E94780F7C018EE191E0B5
:1014D000F7019183808317830683D187C08783E0D8
:1014E00090E0938782871586148662E370E0C701D7
:1014F0000E94220484E090E00E94780F4C0186E272
:1015000091E0F401918380838FE090E09383828364
:1015100060E00E94240184E090E00E94780F5C016A
:10152000CAE3D1E0FC01D183C08389E090E09383DA
:10153000828361E00E94240184E090E00E94780FA1
:101540006C01FC01D183C0838AE090E093838283A5
:1015500061E00E9424018EE090E00E94780F8C01EF
:101560008CE291E0F8019183808397828682B18634
:10157000A086D386C28682E3682E712C7382628233
:101580001582148282E090E09587848784E090E061
:101590000E94780F4C0184E391E0F40191838083F1
:1015A00080E190E09383828360E00E94240184E0E4
:1015B00090E00E94780F5C01FC01D183C0838CE035
:1015C00090E09383828361E00E94240184E090E0B4
:1015D0000E94780F6C0184E491E0F601918380838E
:1015E00088E090E09383828360E00E94240182E19E
:1015F00090E00E94780FEC018AE491E0998388835F
:101600009F828E82B986A886DB86CA867B826A82A2
:101610001D821C8281E090E09D878C871F861E863C
:10162000198A188A7092500260924F0280E180936A
:1016300081001092800082E08093A50180E593EC08
:101640009093A4018093A3019093870080938600D8
:1016500082E1809381008AE691E09093010180937A
:10166000000181E080936F001092520210925102AB
:10167000B7018DE492E00E94FA02B8018DE492E095
:101680000E94FA02BE018DE492E00E94FA02C0E0DC
:10169000D0E08DE492E00E94B4022097D1F30E9442
:1016A00010028823B1F30E940000F3CF1E82C8CE3F
:1016B000052E97FB1EF400940E946F0B57FD07D078
:1016C0000E94770B07FC03D04EF40C946F0B5095DF
:1016D0004095309521953F4F4F4F5F4F089590951E
:1016E0008095709561957F4F8F4F9F4F0895A1E230
:1016F0001A2EAA1BBB1BFD010DC0AA1FBB1FEE1F8C
:10170000FF1FA217B307E407F50720F0A21BB30BD6
:10171000E40BF50B661F771F881F991F1A9469F752
:1017200060957095809590959B01AC01BD01CF01AE
:101730000895A29FB001B39FC001A39F700D811DAA
:101740001124911DB29F700D811D1124911D0895CA
:101750005058BB27AA270E94C00B0C943A0D0E9438
:101760002C0D38F00E94330D20F039F49F3F19F40E
:1017700026F40C94290D0EF4E095E7FB0C94230D50
:10178000E92F0E944B0D58F3BA17620773078407BD
:10179000950720F079F4A6F50C946D0D0EF4E09504
:1017A0000B2EBA2FA02D0B01B90190010C01CA011B
:1017B000A0011124FF27591B99F0593F50F4503EC6
:1017C00068F11A16F040A22F232F342F4427585FB8
:1017D000F3CF469537952795A795F0405395C9F7D0
:1017E0007EF41F16BA0B620B730B840BBAF0915088
:1017F000A1F0FF0FBB1F661F771F881FC2F70EC027
:10180000BA0F621F731F841F48F4879577956795F9
:10181000B795F7959E3F08F0B0CF9395880F08F0E5
:101820009927EE0F9795879508950E94FF0C08F46D
:1018300081E008950E942E0C0C943A0D0E94330D05
:1018400058F00E942C0D40F029F45F3F29F00C94D1
:10185000230D51110C946E0D0C94290D0E944B0D0B
:1018600068F39923B1F3552391F3951B550BBB27CF
:10187000AA2762177307840738F09F5F5F4F220F14
:10188000331F441FAA1FA9F335D00E2E3AF0E0E80B
:1018900032D091505040E695001CCAF72BD0FE2F55
:1018A00029D0660F771F881FBB1F261737074807E9
:1018B000AB07B0E809F0BB0B802DBF01FF279358A1
:1018C0005F4F3AF09E3F510578F00C94230D0C9435
:1018D0006E0D5F3FE4F3983ED4F386957795679558
:1018E000B795F7959F5FC9F7880F911D96958795D6
:1018F00097F90895E1E0660F771F881FBB1F6217F5
:1019000073078407BA0720F0621B730B840BBA0BB2
:10191000EE1F88F7E09508950E94930C6894B1112A
:101920000C946E0D08950E94530D88F09F5798F007
:10193000B92F9927B751B0F0E1F0660F771F881FD4
:10194000991F1AF0BA95C9F714C0B13091F00E94EE
:101950006D0DB1E008950C946D0D672F782F8827D9
:10196000B85F39F0B93FCCF3869577956795B39515
:10197000D9F73EF490958095709561957F4F8F4F84
:101980009F4F0895E89409C097FB3EF49095809589
:10199000709561957F4F8F4F9F4F9923A9F0F92F35
:1019A00096E9BB279395F695879577956795B795B3
:1019B000F111F8CFFAF4BB0F11F460FF1BC06F5F99
:1019C0007F4F8F4F9F4F16C0882311F096E911C0AB
:1019D000772321F09EE8872F762F05C0662371F0CC
:1019E00096E8862F70E060E02AF09A95660F771FE0
:1019F000881FDAF7880F9695879597F90895990FBC
:101A00000008550FAA0BE0E8FEEF16161706E807C8
:101A1000F907C0F012161306E407F50798F0621BE9
:101A2000730B840B950B39F40A2661F0232B242BBE
:101A3000252B21F408950A2609F4A140A6958FEFDD
:101A4000811D811D089597F99F6780E870E060E02F
:101A500008959FEF80EC089500240A941616170647
:101A600018060906089500240A941216130614068F
:101A700005060895092E0394000C11F4882352F0F2
:101A8000BB0F40F4BF2B11F460FF04C06F5F7F4FAA
:101A90008F4F9F4F089557FD9058440F551F59F091
:101AA0005F3F71F04795880F97FB991F61F09F3F4B
:101AB00079F087950895121613061406551FF2CF74
:101AC0004695F1DF08C0161617061806991FF1CFC4
:101AD00086957105610508940895E894BB276627EB
:101AE0007727CB0197F908950E94FF0C08F48FEF38
:101AF000089516F00C94C00E0C94290D68940C9463
:101B0000230D0E94530DA8F39923C1F3AEF3DF9385
:101B1000CF931F930F93FF92C92FDD2788232AF0BD
:101B20002197660F771F881FDAF720E030E040E842
:101B30005FEB9FE3883920F0803E38F021968F7765
:101B40000E94A90BE8E6F0E004C00E94A90BE5E9B9
:101B5000F0E00E94CE0E8B01BE01EC01FB2E6F5710
:101B600071097595771F880B990B0E94C40C28E1A9
:101B700032E741E35FE30E94DC0DAF2D9801AE0137
:101B8000FF900F911F91CF91DF910E94C00B0C9499
:101B90003A0D0E94DC0D0C943A0D0E942C0D38F089
:101BA0000E94330D20F0952311F00C94230D0C941A
:101BB000290D11240C946E0D0E944B0D70F3959F0E
:101BC000C1F3950F50E0551F629FF001729FBB2734
:101BD000F00DB11D639FAA27F00DB11DAA1F649FD0
:101BE0006627B00DA11D661F829F2227B00DA11D83
:101BF000621F739FB00DA11D621F839FA00D611D09
:101C0000221F749F3327A00D611D231F849F600D29
:101C1000211D822F762F6A2F11249F5750409AF052
:101C2000F1F088234AF0EE0FFF1FBB1F661F771FDE
:101C3000881F91505040A9F79E3F510580F00C94A9
:101C4000230D0C946E0D5F3FE4F3983ED4F386951C
:101C500077956795B795F795E7959F5FC1F7FE2B49
:101C6000880F911D9695879597F90895FA01EE0FC3
:101C7000FF1F309621053105A1F16115710561F451
:101C80008038BFE39B0749F168949038810561F083
:101C90008038BFEF9B0741F099234AF5FF3FE105EC
:101CA0003105210519F1E8940894E795D901AA2393
:101CB00029F4AB2FBE2FF85FD0F310C0FF5F70F494
:101CC000A695E0F7F73950F019F0FF3A38F49F770E
:101CD0009F930DD00F9007FC9058089546F00C94F8
:101CE000290D60E070E080E89FE308954FE79F775B
:101CF0005F934F933F932F930E94810D2F913F91BC
:101D00004F915F910E94C90D0C948E0E29F416F02C
:101D10000C94230D0C946D0D0C94290D0E94530D01
:101D2000A8F39638A0F707F80F92E8942BE33AEA65
:101D300048EB5FE70E94DF0D0F920F920F924DB7B5
:101D40005EB70F920E94370FE2ECF0E00E94CE0ED9
:101D50004F915F91EF91FF91E595EE1FFF1F49F0C5
:101D6000FE57E0684427EE0F441FFA95E1F74195CE
:101D7000550B0E94010F0F9007FE0C94F50E08956D
:101D80009F3F31F0915020F4879577956795B795EF
:101D9000880F911D9695879597F90895DF93CF93B6
:101DA0001F930F93FF92EF92DF927B018C01689457
:101DB00006C0DA2EEF010E94DC0DFE01E894A59129
:101DC0002591359145915591A6F3EF010E94C00BE5
:101DD000FE019701A801DA9469F7DF90EF90FF9078
:101DE0000F911F91CF91DF9108959B01AC0160E0AD
:101DF00070E080E89FE30C941A0C0C94230D0C9473
:101E0000C00E0E94530DD8F39923C9F3940F511DAE
:101E1000A3F39150504094F059F0882332F0660FAC
:101E2000771F881F91505040C1F79E3F51052CF7F6
:101E3000880F911D9695879597F908955F3FACF0AF
:101E4000983E9CF0BB27869577956795B79508F4E3
:101E5000B1609395C1F7BB0F58F711F460FFE8CF5D
:101E60006F5F7F4F8F4F9F4FE3CF0C946E0DFA0142
:101E7000DC01AA0FBB1F9B01AC01BF5728F422272E
:101E800033274427507820C0B75190F4AB2F00245B
:101E9000469537952795011CA395D2F3002071F044
:101EA000220F331F441FB395DAF30ED00C94A80B06
:101EB00061307105A0E88A07B94630F49B01AC0196
:101EC0006627772788279078309621F02083318302
:101ED0004283538308950E94990BB7FF0895821B94
:101EE000930B0895EE0FFF1F0590F491E02D0994D8
:101EF0000F931F93CF93DF938230910510F482E00C
:101F000090E0E0916A02F0916B0230E020E0B0E0F6
:101F1000A0E0309799F42115310509F44AC0281B37
:101F2000390B24303105D8F58A819B816115710503
:101F300089F1FB0193838283FE0111C040815181AD
:101F40000281138148175907E0F04817590799F49F
:101F5000109761F012960C93129713961C93329679
:101F6000CF01DF91CF911F910F91089500936A02E5
:101F700010936B02F4CF2115310551F0421753072E
:101F800038F0A901DB019A01BD01DF01F801C1CFE1
:101F9000EF01F9CF90936B0280936A02CDCFFE01DF
:101FA000E20FF31F819391932250310939832883E3
:101FB000D7CF2091680230916902232B41F4209100
:101FC0000401309105013093690220936802209149
:101FD0000201309103012115310541F42DB73EB7BF
:101FE0004091060150910701241B350BE0916802D6
:101FF000F0916902E217F307A0F42E1B3F0B28179C
:10200000390778F0AC014E5F5F4F2417350748F071
:102010004E0F5F1F50936902409368028193919322
:102020009FCFF0E0E0E09CCFCF93DF930097E9F003
:10203000FC01329713821282A0916A02B0916B0266
:10204000ED0130E020E01097A1F420813181820F72
:10205000931F20916802309169022817390709F00F
:1020600061C0F0936902E0936802DF91CF91089517
:10207000EA01CE17DF07E8F54A815B819E01411531
:102080005105B1F7E901FB83EA8349915991C40FE6
:10209000D51FEC17FD0761F4808191810296840FB2
:1020A000951FE90199838883828193819B838A8329
:1020B000F0E0E0E012968D919C9113970097B9F5AE
:1020C0002D913C911197CD010296820F931F209183
:1020D0006802309169022817390739F6309751F5AF
:1020E00010926B0210926A02B0936902A093680288
:1020F000BCCFD383C28340815181840F951FC81701
:10210000D90761F44E5F5F4F88819981480F591F4D
:10211000518340838A819B8193838283211531057A
:1021200009F0B0CFF0936B02E0936A029ECFFD01FD
:10213000DC01C0CF13821282D7CFF894FFCFB30255
:1021400000006C028000000000003F07000000005B
:102150005F033A0315031103000000002204890302
:10216000000000005106000000007C015D05000039
:1021700000008E060000000084037F03E6060000D6
:1021800000003204000000006E0171040000000035
:102190004602A601D30193020402E201F601000007
:1021A0000000FA02B4020D0A00536F6E6F20616CDA
:1021B0006C6F20737461746F2048414C4146484FE6
:0221C0005400C9
:107E0000112484B714BE81FFF0D085E080938100F7
:107E100082E08093C00088E18093C10086E0809377
:107E2000C20080E18093C4008EE0C9D0259A86E02C
:107E300020E33CEF91E0309385002093840096BBD3
:107E4000B09BFECF1D9AA8958150A9F7CC24DD24C4
:107E500088248394B5E0AB2EA1E19A2EF3E0BF2EE7
:107E6000A2D0813461F49FD0082FAFD0023811F036
:107E7000013811F484E001C083E08DD089C08234E0
:107E800011F484E103C0853419F485E0A6D080C0E4
:107E9000853579F488D0E82EFF2485D0082F10E0AE
:107EA000102F00270E291F29000F111F8ED06801E7
:107EB0006FC0863521F484E090D080E0DECF843638
:107EC00009F040C070D06FD0082F6DD080E0C81688
:107ED00080E7D80618F4F601B7BEE895C0E0D1E017
:107EE00062D089930C17E1F7F0E0CF16F0E7DF06D8
:107EF00018F0F601B7BEE89568D007B600FCFDCFD4
:107F0000A601A0E0B1E02C9130E011968C91119780
:107F100090E0982F8827822B932B1296FA010C0160
:107F200087BEE89511244E5F5F4FF1E0A038BF0790
:107F300051F7F601A7BEE89507B600FCFDCF97BE46
:107F4000E89526C08437B1F42ED02DD0F82E2BD052
:107F50003CD0F601EF2C8F010F5F1F4F84911BD097
:107F6000EA94F801C1F70894C11CD11CFA94CF0C13
:107F7000D11C0EC0853739F428D08EE10CD085E9AC
:107F80000AD08FE07ACF813511F488E018D01DD067
:107F900080E101D065CF982F8091C00085FFFCCF94
:107FA0009093C60008958091C00087FFFCCF809118
:107FB000C00084FD01C0A8958091C6000895E0E648
:107FC000F0E098E1908380830895EDDF803219F02E
:107FD00088E0F5DFFFCF84E1DECF1F93182FE3DFCA
:107FE0001150E9F7F2DF1F91089580E0E8DFEE27F6
:047FF000FF270994CA
:027FFE00040479
:00000001FF
